:100000000C94321A0C945C1A0C945C1A0C945C1AC2
:100010000C945C1A0C945C1A0C945C1A0C945C1A88
:100020000C945C1A0C945C1A0C945C1A0C945C1A78
:100030000C945C1A0C945E960C945C1A0C945C1AEA
:100040000C945C1A0C94945E0C9417620C945C1AD9
:100050000C947D580C945C1A0C945C1A0C945C1AE9
:100060000C945C1A0C945C1A0C945C1A0C945C1A38
:100070000C945C1A0C945C1A0C945C1A0C945C1A28
:100080000C945C1A0C945C1A0C945C1AE55EF45E99
:10009000135F225F3D5F425F455F4A5F4D5F525F86
:1000A000555F5A5F5D5F625F6C5F87608A607D60ED
:1000B0008160A1608E60926098609C6086618B61B7
:1000C00090619A61C861A461AC61B461BE6105A828
:1000D0004CCDB2D44EB93836A9020C50B9918688AD
:1000E000083CA6AAAA2ABE000000803F4C455645FF
:1000F0004C494E4700434F4D4D554E49434154499D
:100100004F4E0044525952554E004552524F525391
:1001100000494E464F004543484F0020746F6F2002
:100120006C6F6E6720657874727573696F6E20707E
:10013000726576656E7465640A0020636F6C642076
:10014000657874727573696F6E2070726576656E0E
:100150007465640A00536C6565702E2E2E005A205B
:1001600070726F6265206F75742E206265640A007C
:100170005A2070726F6265206F75742E20626564FC
:1001800000203A205A5F534146455F484F4D494E43
:10019000470A00202064657374696E6174696F6E2C
:1001A0003D005A5F534146455F484F4D494E4720F9
:1001B0003E3E3E0A00473238205A20466F7262693E
:1001C0006464656E0A00473238205A20466F7262B6
:1001D000696464656E00203A203E2028686F6D6572
:1001E0005F616C6C5F61786973207C7C20686F6DE7
:1001F000655A29203E2066696E616C0A00202063E2
:10020000757272656E745F706F736974696F6E3D3D
:1002100000203A203E20686F6D65590A0020206357
:10022000757272656E745F706F736974696F6E3D1D
:1002300000203A203E20686F6D65580A0020206338
:10024000757272656E745F706F736974696F6E3DFD
:10025000005261697365205A20286265666F726575
:1002600020686F6D696E672920746F20003E2065DD
:100270006E6473746F70732E656E61626C65287442
:10028000727565290A003E3E3E2067636F64655FB4
:100290004732380A00205A3A200020593A200042BA
:1002A000656420583A2000655072696E74426F741C
:1002B0002072656164792E00526573756D696E6791
:1002C000207072696E74005761697420666F7220C5
:1002D000757365722E2E2E004E6F206D6F76652E13
:1002E00000456E642066696C65206C6973740A0051
:1002F000426567696E2066696C65206C6973740A73
:10030000005344207072696E74696E67206279745C
:100310006520004E6F74205344207072696E7469BA
:100320006E670A0046696C652064656C6574656477
:100330003A0044656C6574696F6E206661696C652E
:10034000642C2046696C653A20006F70656E2066EB
:1003500061696C65642C2046696C653A20002569EA
:10036000730025696D20256973002569682025695A
:100370006D20256973002569642025696820256939
:100380006D20256973002569792025696420256918
:10039000682025696D20256973005072696E74208C
:1003A00074696D653A200050726F7465637465649A
:1003B0002050696E0A0048656174696E672E2E2EA2
:1003C00000655072696E74426F7420726561647961
:1003D0002E00160111010A010301F500EC006F6601
:1003E000660044454255473A004B494C4C45442E23
:1003F00020006F6B0048656174696E6720646F6EE2
:10040000652E003F0A0020573A0048656174696E06
:10041000672E2E2E00655072696E74426F742072C2
:10042000656164792E0042656420646F6E652E00FC
:100430003F0A0020573A00426564204865617469AC
:100440006E672E00655072696E74426F74204F663D
:10045000662E004649524D574152455F4E414D452B
:100460003A4D61726C696E202D20534F55524345B1
:100470005F434F44455F55524C3A68747470733A09
:100480002F2F6769746875622E636F6D2F4D6172CF
:100490006C696E4669726D776172652F4D61726C21
:1004A000696E2050524F544F434F4C5F5645525344
:1004B000494F4E3A312E30204D414348494E455F19
:1004C000545950453A655072696E74426F742045B4
:1004D000585452554445525F434F554E543A31207B
:1004E000555549443A63656465326132662D34314D
:1004F00061322D343734382D396231322D63353540
:100500006336326633363766660A007A5F6D696E27
:100510003A2000795F6D696E3A2000785F6D696EF0
:100520003A20005265706F7274696E6720656E6460
:1005300073746F70207374617475730A004D313475
:100540003520533C696E6465783E206F7574206F6A
:10055000662072616E67652028302D31290A0053AC
:10056000657474696E672054726176656C204163AE
:1005700063656C65726174696F6E3A2000536574CF
:1005800074696E672052657472616374204163639D
:10059000656C65726174696F6E3A2000536574749E
:1005A000696E67205072696E7420416363656C6583
:1005B000726174696F6E3A200053657474696E6776
:1005C000205072696E7420616E6420547261766589
:1005D0006C20416363656C65726174696F6E3A206B
:1005E0000023646566696E65202044454641554C8C
:1005F000545F4B64200023646566696E6520204467
:10060000454641554C545F4B69200023646566693B
:100610006E65202044454641554C545F4B70200088
:10062000504944204175746F74756E652066696E1B
:100630006973686564212050757420746865206C46
:10064000617374204B702C204B6920616E64204BC9
:100650006420636F6E7374616E74732066726F6D65
:100660002062656C6F7720696E746F20436F6E66D1
:10067000696775726174696F6E2E680A005049442B
:10068000204175746F74756E65206661696C656470
:10069000212074696D656F75740A005049442041CA
:1006A00075746F74756E65206661696C6564212070
:1006B00054656D706572617475726520746F6F201A
:1006C000686967680A00204B643A2000204B693A49
:1006D0002000204B703A20000A20436C617373693C
:1006E0006320504944200A002054753A2000204BD2
:1006F000753A2000206D61783A2000206D696E3ACD
:10070000200020643A200020626961733A20004290
:100710006564204C6576656C696E6720004661698A
:100720006C656420746F20656E61626C6520426543
:1007300064204C6576656C696E670A004F66667367
:10074000657473206170706C696564004572723AFB
:1007500020546F6F206661722100546F6F206661B4
:10076000722066726F6D207265666572656E636574
:1007700020706F696E740A003A20007A5F6D6178AC
:100780003A20007A5F6D696E3A20005A204F666603
:10079000736574004E6F2063617365206C696768D0
:1007A000740A0041637469766520457874727564D3
:1007B00065723A2000203A204245464F52450A00D1
:1007C000202063757272656E745F706F73697469EF
:1007D0006F6E3D003E3E3E2067636F64655F542848
:1007E00000556E6B6E6F776E20636F6D6D616E641A
:1007F0003A202200203A2047323920636F72726516
:10080000637465642058595A0A0020206375727217
:10081000656E745F706F736974696F6E3D00202040
:1008200044697363726570616E63793A0020204D8C
:1008300061747269783A005A2066726F6D20507246
:100840006F62653A00203A2047323920756E636F37
:10085000727265637465642058595A0A00202063D7
:10086000757272656E745F706F736974696F6E3DD7
:10087000002020000A436F72726563746564204231
:100880006564204865696768742076732E20426528
:100890006420546F706F6C6F67793A0A00202000F3
:1008A0000A4265642048656967687420546F706FF8
:1008B0006772617068793A0A2020202B2D2D2D2037
:1008C0004241434B202D2D2B0A2020207C2020202C
:1008D00020202020202020207C0A204C207C20204A
:1008E0002020282B29202020207C20520A2045204F
:1008F0007C20202020202020202020207C20490A2D
:100900002046207C20282D29204E20282B29207CA1
:1009100020470A2054207C20202020202020202036
:1009200020207C20480A2020207C20202020282DE8
:1009300029202020207C20540A2020207C202020D8
:1009400020202020202020207C0A2020204F2D2D18
:100950002046524F4E54202D2D2B0A2028302C306B
:10096000290A004D65616E206F662073616D706CA1
:10097000656420706F696E74733A200020643A20B9
:100980000020623A200045716E20636F65666669DB
:100990006369656E74733A20613A2000203A203E04
:1009A0002070726F62696E6720636F6D706C657422
:1009B000650A00202063757272656E745F706F73D4
:1009C0006974696F6E3D0028422961636B00284697
:1009D00029726F6E74002852296967687400284C68
:1009E00029656674003F4E756D626572206F6620E2
:1009F00070726F626520706F696E74732069732006
:100A0000696D706C61757369626C65202832206D48
:100A1000696E696D756D292E0A0052756E6E696E6C
:100A20006720696E204452592D52554E206D6F64D7
:100A3000650A00473239204175746F204265642091
:100A40004C6576656C696E670A003F2856296572A9
:100A5000626F7365204C6576656C20697320696DE3
:100A6000706C61757369626C652028302D34292E95
:100A70000A00203A203E3E3E2067636F64655F4770
:100A800032390A00202063757272656E745F706F70
:100A9000736974696F6E3D0029002C20002C2000C2
:100AA00028004E6F204C696E65204E756D62657230
:100AB000207769746820636865636B73756D2C209B
:100AC0004C617374204C696E653A20004B494C4C64
:100AD00045442E200053544F505045442E20005082
:100AE00072696E7465722073746F707065642064CF
:100AF000756520746F206572726F72732E2046695F
:100B00007820746865206572726F7220616E64204F
:100B1000757365204D39393920746F20726573748F
:100B20006172742E202854656D70657261747572DF
:100B3000652069732072657365742E205365742077
:100B40006974206166746572207265737461727471
:100B5000696E67290A004E6F20436865636B737581
:100B60006D2077697468206C696E65206E756D62A2
:100B700065722C204C617374204C696E653A2000BC
:100B8000636865636B73756D206D69736D61746304
:100B9000682C204C617374204C696E653A20004CBF
:100BA000696E65204E756D626572206973206E6F87
:100BB00074204C617374204C696E65204E756D62B3
:100BC00065722B312C204C617374204C696E653A30
:100BD00020004D313130004D3331004D3834205834
:100BE0002059205A204500534420726561642065D5
:100BF00072726F720A00446F6E65207072696E7453
:100C0000696E672066696C650A0020496E76616CC2
:100C1000696420657874727564657220000A2073B7
:100C20006F66745F656E6473746F705F6D6178205A
:100C30003D20000A20736F66745F656E6473746F85
:100C4000705F6D696E203D20000A20706F736974BB
:100C5000696F6E5F7368696674203D20002061785B
:100C600069733A0A20686F6D655F6F6666736574B5
:100C7000203D2000466F7220000000594300005CB8
:100C80004300005C43000008C20000C0C000000038
:100C900000203A2073657475705F666F725F656ED1
:100CA0006473746F705F6F725F70726F62655F6D97
:100CB0006F76650A00202063757272656E745F70CE
:100CC0006F736974696F6E3D00203A20636C6561D3
:100CD0006E5F75705F61667465725F656E64737474
:100CE0006F705F6F725F70726F62655F6D6F766558
:100CF0000A00202063757272656E745F706F73698D
:100D000074696F6E3D00205A3A200020593A200045
:100D100042656420583A20002C20002C20003E3EE2
:100D20003E20646F5F686F6D696E675F6D6F76659B
:100D30002800205A0020590041424C2041646A7525
:100D400073746D656E742058002028656E61626C46
:100D50006564290A004C494E454152004175746F43
:100D600020426564204C6576656C696E673A2000A8
:100D7000204E6F7A7A6C65290A0020262041626F26
:100D800076650020262053616D65205A206173002E
:100D900020262042656C6F77002D4261636B002036
:100DA00028526967687400205A3A0020593A005066
:100DB000726F6265204F666673657420583A00460C
:100DC00049585F4D4F554E5445445F50524F424530
:100DD0000A0050726F62653A200043617274657355
:100DE00069616E0A004D616368696E6520547970AF
:100DF000653A200020706F736974696F6E206F759B
:100E000074206F662072616E67652E0A003F507213
:100E10006F626520004572723A204D415854454D2D
:100E20005020424544004572723A204D4158544585
:100E30004D50004D415854454D50207472696767BC
:100E400065726564004572723A204D494E54454DB5
:100E50005020424544004572723A204D494E544557
:100E60004D50004D494E54454D502074726967678E
:100E7000657265640048656174696E6720666169C2
:100E80006C65640048656174696E67206661696CB1
:100E900065640048656174696E67206661696C65A8
:100EA000640048656174696E67206661696C656499
:100EB0000000002100240027002A00000022002555
:100EC0000028002B0000002000230026002900023B
:100ED00002020202020202040404040404040403E1
:100EE00003030303030303010101010101010101E4
:100EF00002040810204080010204081020408001F4
:100F000002040810204080804020100804020100E4
:100F100000000102000000000000000403070600BA
:100F20000000000000000000000000000000004B76
:100F3000494C4C45442E2000202D20496E76616C92
:100F40006964206578747275646572206E756D626F
:100F5000657220210A002020506C616E6E6572421D
:100F6000756666657242797465733A200020467230
:100F70006565204D656D6F72793A2000436F6D7025
:100F8000696C65643A204D61722031332032303112
:100F9000370A00207C20417574686F723A20204522
:100FA0006C6C696F7420426F6E65790A0032303163
:100FB000372D30322D31352031353A343600204C42
:100FC00061737420557064617465643A20000A008E
:100FD0004D61726C696E0020536F66747761726543
:100FE0002052657365740A00205761746368646FEA
:100FF000672052657365740A002042726F776E2015
:101000006F75742052657365740A002045787465A5
:10101000726E616C2052657365740A00506F77655B
:101020007255700A0073746172740A006572726F8F
:10103000722077726974696E6720746F2066696CBC
:10104000650A00456E6473746F70732025632025F4
:101050006320256320256300205A3A0020593A0076
:1010600020583A00656E6473746F707320686974F9
:101070003A2000446F6E6520736176696E67206662
:10108000696C652E0A004D3239004D6F7665205827
:10109000004D6F76652059004D6F7665205A0045EA
:1010A00078747275646572004D6F766520302E31EC
:1010B0006D6D004D6F766520316D6D004D6F7665FD
:1010C0002031306D6D004D6F766520617869730059
:1010D0004578747275646572004D6F7665205A00AC
:1010E0004D6F76652059004D6F7665205800457824
:1010F000747275646572004D6F7665205A004D6F8D
:1011000076652059004D6F766520580050726570E5
:1011100061726500526573746F7265206661696CF7
:1011200073616665004C6F6164206D656D6F7279E7
:101130000053746F7265206D656D6F72790046693A
:101140006C616D656E74004D6F74696F6E005465EF
:101150006D7065726174757265004D61696E0050E5
:101160007265686561742041425320636F6E66004A
:101170005072656865617420504C4120636F6E66E3
:10118000005049442D44005049442D4400504944E6
:101190002D49005049442D49005049442D500050DC
:1011A00049442D500046616E2073706565640046A9
:1011B000616E207370656564004265640042656419
:1011C000004E6F7A7A6C65004E6F7A7A6C650043D8
:1011D0006F6E74726F6C0053746F7265206D656D05
:1011E0006F72790042656400426564004E6F7A7ADE
:1011F0006C65004E6F7A7A6C650046616E20737084
:101200006565640046616E207370656564005465B1
:101210006D706572617475726500454550524F4D31
:1012200020636865636B73756D206D69736D6174A0
:1012300063680A00206279746573290A0020737458
:101240006F7265642073657474696E67732072656C
:101250007472696576656420280072657365745FD1
:101260006265645F6C6576656C0A004861726463F0
:101270006F6465642044656661756C7420536574A1
:1012800074696E6773204C6F616465640A00202086
:101290004D383531205A005A2D50726F6265204FFB
:1012A000666673657420286D6D293A0A0020204D0A
:1012B0003230302044300A0020204D32303020447B
:1012C000002044697361626C65640A0046696C6160
:1012D0006D656E742073657474696E67733A00206F
:1012E000440020490020204D333031205000504927
:1012F000442073657474696E67733A0A002046006F
:1013000020420020480020204D3134352053004D2C
:101310006174657269616C206865617475702070B4
:101320006172616D65746572733A0A0020204D34F4
:1013300032302053004175746F20426564204C6543
:1013400076656C696E673A0A00205A0020590020C1
:10135000204D323036205800486F6D65206F66662C
:1013600073657420286D6D290A00204500205A00FD
:1013700020590020580020420020540020204D32E7
:101380003035205300416476616E63656420766178
:10139000726961626C65733A20533D4D696E2066D7
:1013A0006565647261746520286D6D2F73292C202A
:1013B000543D4D696E2074726176656C206665657A
:1013C000647261746520286D6D2F73292C20423D55
:1013D0006D696E696D756D207365676D656E7420DE
:1013E00074696D6520286D73292C20583D6D6178D6
:1013F000696D756D205859206A65726B20286D6D76
:101400002F73292C20205A3D6D6178696D756D20F0
:101410005A206A65726B20286D6D2F73292C20204D
:10142000453D6D6178696D756D2045206A65726B0B
:1014300020286D6D2F73290A0020540020520020AF
:10144000204D323034205000416363656C65726119
:1014500074696F6E733A20503D7072696E74696E74
:10146000672C20523D7265747261637420616E64F2
:1014700020543D74726176656C0A00204500205A44
:101480000020590020204D3230312058004D617825
:10149000696D756D20416363656C65726174696F18
:1014A0006E20286D6D2F7332293A0A0020450020E6
:1014B0005A0020590020204D3230332058004D6111
:1014C00078696D756D2066656564726174657320F9
:1014D000286D6D2F73293A0A00204500205A0020FC
:1014E000590020204D393220580053746570732004
:1014F00070657220756E69743A0A0025753A253058
:10150000327500253032753A253032750025756404
:1015100020253032753A25303275005A005900586E
:101520000009200000000000000000000000000092
:101530007FFFE000000000000000000000000070DD
:1015400000E000000000000000000000000061F862
:101550006000000000000000000000000041F820D2
:1015600000000000000000000000000040F020002B
:1015700000000000000000000000004060200000AB
:10158000000000000000000000005801A07F800063
:101590000000000000004104005C63A0FFC00000E8
:1015A00000000000002082005EF7A0FFC0000000E5
:1015B000000000002082005EF7A0FFC000000000D5
:1015C0000000004104005C63A07F80000000000078
:1015D00000008208005801A07F8000000000000089
:1015E00001041000406020FFC00000000000000166
:1015F00004100040F020FFC0000000000000008246
:10160000080041F820FFC000000000000000410475
:101610000061F8603F0000000000000000000000D2
:101620007000E01E0000000000000001FFFF807F4E
:10163000FFE00C0000000000000001FFFF80000040
:10164000000000000000000000000000007FFFE03C
:101650000000000000000000000000007000E0003A
:101660000000000000000000000000630C600000AB
:1016700000000000000000000000470E20000000F5
:101680000000000000000000004F0F2000000000DC
:1016900000000000000000005F0FA000000000003C
:1016A000000000000000005E07A07F800000000036
:1016B000000000410400406020FFC0000000000066
:1016C000000020820040F020FFC000000000000069
:1016D0000020820040F020FFC00000000000000059
:1016E0004104004060207F80000000000000008274
:1016F00008005E07A07F80000000000000010410C9
:10170000005F0FA0FFC000000000000001041000F7
:101710004F0F20FFC00000000000000082080047BB
:101720000E20FFC000000000000000410400630C18
:10173000603F00000000000000000000007000E0BA
:101740001E0000000000000001FFFF807FFFE00C92
:101750000000000000000001FFFF80000000000604
:101760000900FE000000000001090008FE0000055D
:10177000080806000040F0C8888898781005080816
:10178000060000C0F88888888888F80505050600E6
:10179000012030F830200508080600002070F820ED
:1017A000202020E00509090600FF2070A8A8B888BD
:1017B0008870200509090600FFE080C0B0A8283025
:1017C00028280509090600FFF8A88888888888A8BD
:1017D000F8050A0A0600FE205050505088A8A88834
:1017E0007003030306000340A0402020454E434FF2
:1017F0004445525F313030585F53544550535F5029
:1018000045525F5345433A20002020454E434F4404
:1018100045525F3130585F53544550535F504552E5
:101820005F5345433A200020204D756C7469706CFD
:101830006965723A2000456E6320537465702052CA
:101840006174653A200000060900FE070192032139
:1018500020FFFF08FF07FF00000006000001070748
:10186000060200808080808000800302020601055D
:10187000A0A00507070600005050F850F85050058A
:1018800007070600002078A07028F020050707064B
:101890000000C0C810204098180507070600006027
:1018A00090A040A89068020303060104C040800392
:1018B00007070601002040808080402003070706BC
:1018C0000100804020202040800505050600012001
:1018D000A870A8200505050600012020F820200298
:1018E00003030602FFC04080050101060003F80261
:1018F0000202060200C0C00505050600010810200E
:101900004080050707060000708888888888700373
:10191000070706010040C040404040E005070706B9
:101920000000708808708080F8050707060000F83E
:101930001020100808F0050707060000103050902E
:10194000F81010050707060000F880F008088870F6
:10195000050707060000708080F08888700507077B
:10196000060000F8081020202020050707060000C8
:10197000708888708888700507070600007088885E
:1019800078080870020505060200C0C000C0C00249
:1019900006060602FFC0C000C0408004070706001C
:1019A0000010204080402010050303060002F800CC
:1019B000F80407070601008040201020408005073A
:1019C00007060000708808102000200507070600A1
:1019D0000070880868A8A8700507070600007088CE
:1019E00088F8888888050707060000F08888F0884E
:1019F00088F00507070600007088808080887005E1
:101A00000707060000F08888888888F00507070621
:101A10000000F88080F08080F8050707060000F8D5
:101A20008080F0808080050707060000708880B8FD
:101A3000888870050707060000888888F8888888E5
:101A400001070706020080808080808080050707EC
:101A500006000038101010109060050707060000FF
:101A60008890A0C0A09088050707060000808080AD
:101A7000808080F805070706000088D8A888888835
:101A8000880507070600008888C8A8988888050781
:101A90000706000070888888888870050707060098
:101AA00000F08888F08080800507070600007088B5
:101AB0008888A89068050707060000F08888F0A0CD
:101AC0009088050707060000788080700808F005F8
:101AD0000707060000F82020202020200507070621
:101AE00000008888888888887005070706000088B5
:101AF000888888885020050707060000888888881D
:101B000088A850050707060000888850205088885C
:101B10000507070600008888885020202005070751
:101B2000060000F80810204080F8030707060100AF
:101B3000E08080808080E00505050600018040206F
:101B40001008030707060100E02020202020E00500
:101B50000303060004205088050101060000F80276
:101B6000020206020580400505050600007008789F
:101B700088780507070600008080B0C88888F005CF
:101B800005050600007080808870050707060000C4
:101B9000080868988888780505050600007088F8A8
:101BA00080700507070600003048E04040404005CF
:101BB00006060600FF70888878087005070706008B
:101BC000008080B0C888888801070706020080006E
:101BD00080808080800308080601FF2000202020EC
:101BE00020A040040707060000808090A0C0A090BD
:101BF000030707060100C04040404040E0050505DE
:101C0000060000D0A8A8A8A8050505060000B0C8D1
:101C10008888880505050600007088888870050694
:101C2000060600FFF08888F080800506060600FFA3
:101C3000788888780808050505060000B0C8808007
:101C40008005050506000070807008F0040707068F
:101C500000004040E0404040300505050600008897
:101C60008888986805050506000088888850200542
:101C700005050600008888A8A8500505050600008F
:101C800088502050880506060600FF888888780856
:101C900070050505060000F8102040F80307070648
:101CA00001002040408040402001070706020080DC
:101CB00080808080808003070706010080404020EC
:101CC0004040800502020600026890000000060005
:101CD00000000000060000000000060000000000F8
:101CE00006000000000006000000000006000000E2
:101CF00000000600000000000600000000000600D2
:101D000000000000060000000000060000000000C7
:101D100006000000000006000000000006000000B1
:101D200000000600000000000600000000000600A1
:101D30000000000006000000000006000000000097
:101D40000600000000000600000000000600000081
:101D50000000060000000000060000000000060071
:101D60000000000006000000000006000000000067
:101D70000600000000000600000000000600000051
:101D80000000060000000000060000000000060041
:101D90000000000006000001070706020080008026
:101DA000808080800507070600002070A8A0A8702A
:101DB00020050707060000304040E04050A8050518
:101DC0000506000088705070880507070600008827
:101DD0005020F820F82001070706020080808000CC
:101DE0008080800508080600003048205050209070
:101DF00060030101060107A0050707060000F88837
:101E0000B8B8B888F8050707060001700878887820
:101E100000F80505050600012850A0502805030319
:101E2000060001F8080802020206020640800507C3
:101E300007060000F888A88898A8F80501010600A0
:101E400006F8040404060003609090600507070686
:101E500000002020F8202000F8040505060003609B
:101E6000902040F0030505060003E020E020E0029A
:101E7000020206020640800508080600FF888888DE
:101E80008898E880800507070600007898987818F9
:101E90001818020202060202C0C00202020602FF75
:101EA000408003050506000340C04040E0050707E9
:101EB000060001708888887000F805050506000195
:101EC000A0502850A00507070600008890A858B821
:101ED00008080507070600008890B84898203805CC
:101EE0000808060000C040C048D8380808050707A1
:101EF00006000020002040808870050808060000C9
:101F00004020007088F88888050808060000102026
:101F1000007088F8888805080806000020500070C6
:101F200088F888880508080600006890007088F81E
:101F300088880508080600005000708888F888889E
:101F40000508080600002050207088F888880507DA
:101F5000070600003860A0B8E0A0B8050808060031
:101F6000FF708880808870206005080806000040A7
:101F70002000F880F080F80508080600000810002E
:101F8000F880F080F8050808060000205000F8806E
:101F9000F080F80507070600005000F880F080F890
:101FA000030808060100804000E0404040E00308CC
:101FB00008060100204000E0404040E00308080619
:101FC000010040A000E0404040E003070706010098
:101FD000A000E0404040E0050707060000704848C8
:101FE000E848487005080806000068900088C8A8FE
:101FF0009888050808060000402070888888887046
:102000000508080600001020708888888870050878
:1020100008060000205000708888887005080806AF
:102020000000689000708888887005080806000025
:102030005000708888888870050505060001885062
:102040002050880508080600FF1070A8A8A8A870EE
:1020500040050808060000402088888888887005A8
:1020600008080600001020888888888870050808FD
:10207000060000205000888888887005080806003F
:1020800000500088888888887005080806000010BD
:10209000208850202020200509090600FFC040703C
:1020A0004848704040E00408080601FF609090A096
:1020B0009090E08005080806000040200070087835
:1020C00088780508080600001020007008788878D5
:1020D0000508080600002050007008788878050878
:1020E00008060000689000700878887805070706E1
:1020F0000000500070087888780508080600002065
:1021000050207008788878050606060000D02878E8
:10211000A0A8500506060600FF70808870206005A4
:1021200008080600004020007088F8807005080844
:102130000600001020007088F8807005080806006E
:10214000002050007088F8807005070706000050D6
:10215000007088F880700308080601008040004085
:10216000C04040E003080806010020400040C04095
:1021700040E003080806010040A00040C04040E0E5
:10218000030707060100A00040C04040E005070724
:10219000060000A040A0107888700508080600001E
:1021A000689000B0C88888880508080600004020AC
:1021B00000708888887005080806000010200070EC
:1021C00088888870050808060000205000708888FC
:1021D000887005080806000068900070888888707C
:1021E00005070706000050007088888870050505FF
:1021F0000600012000F800200507070600FF107008
:10220000A8A8A8704005080806000040200088889B
:1022100088986805080806000010200088888898BB
:10222000680508080600002050008888889868051E
:102230000707060000500088888898680509090685
:1022400000FF102000888888F8087004070706013E
:10225000FFC04060506040E00508080600FF5000E5
:102260008888887808704572726F722077726974F6
:10227000696E6720746F20454550524F4D210A000A
:10228000206279746573290A0053657474696E67F6
:10229000732053746F7265642028001000C9021007
:1022A000012C014001220170011801B0010E01F062
:1022B0000104015002FA00B002F0003003E600D041
:1022C00003DC009004D2007005C800A006BE000028
:1022D00008B400B009AA00D00BA000600E96006000
:1022E000118C000015820020197800C01D6E00A01E
:1022F000226400B0275A00902C500000314600E0C4
:10230000343C0010383200903A2800603C1E00A097
:102310003D1400803E0A00203F000043616E6E6F56
:1023200074206F70656E207375626469722000544A
:102330004845524D414C2052554E41574159005449
:102340006865726D616C2052756E617761790020ED
:102350006669727374005A0059005800486F6D65C1
:1023600020002066697273740A005A0059005800F0
:10237000486F6D6520006563686F3A0024F4D430BF
:1023800050C38E20C2A24017828B7011127A910D19
:10239000816CD90AA861E108C758660761514306F4
:1023A0001E4B5D05C145A7041A411104093D980360
:1023B000713931034036DB0265339102D430540267
:1023C000802E1D02632CEE01752AC501B028A001E4
:1023D000102781018F2564012B244B01E022340159
:1023E000AC211F018D200D01801FFC00841EED001B
:1023F000971DDF00B81CD200E61BC600201BBC00E6
:10240000641AB200B219A8000A19A0006A1899004B
:10241000D117910040178B00B516840031167E004D
:10242000B31579003A157300C7146F0058146A0089
:10243000EE1366008813630025135E00C7125B006D
:102440006C12570015125400C111510070114F0049
:1024500021114B00D61049008D1047004610440052
:1024600002104200C00F4000800F3E00420F3C00AF
:10247000060F3B00CB0E3800930E37005C0E350084
:10248000270E3400F30D3200C10D3100900D3000E5
:10249000600D2E00320D2D00050D2C00D90C2B00E7
:1024A000AE0C2900850C29005C0C2700350C270098
:1024B0000E0C2600E80B2400C40B2400A00B230004
:1024C0007D0B23005A0B2100390B2100180B200033
:1024D000F80A1F00D90A1E00BB0A1E009D0A1D0033
:1024E000800A1D00630A1C00470A1B002C0A1B00FF
:1024F000110A1A00F7091A00DD091900C4091900A8
:10250000AB091900920917007B091800630917002D
:102510004C09160036091600200916000A09150094
:10252000F5081500E0081400CC081400B8081400E1
:10253000A4081400900813007D0812006B08130013
:102540005808120046081200340811002308110030
:102550001208110001081100F0071000E007100038
:10256000D0071000C0071000B0070F00A10710002F
:1025700091070E0083070F0074070F0065070E0018
:1025800057070E0049070E003B070D002E070E00EF
:1025900020070D0013070D0006070D00F9060C00BB
:1025A000ED060D00E0060C00D4060C00C8060C0079
:1025B000BC060C00B0060C00A4060B0099060C002B
:1025C0008D060B0082060B0077060B006C060B00D5
:1025D00061060A0057060B004C060A0042060A0074
:1025E00038060A002E060A0024060A001A060A0007
:1025F0001006090007060A00FD050900F405090098
:10260000EB050900E2050900D9050900D00509001C
:10261000C7050900BE050900B5050800AD0508009D
:10262000A50509009C050800940508008C05080014
:10263000840508007C050800740508006C05070087
:10264000650508005D050700560508004E050700F2
:102650004705070040050800380507003105070059
:102660002A050700230507001C05060016050700BC
:102670000F0507000805060002050700FB04060019
:10268000F5040700EE040600E8040600E204070073
:10269000DB040600D5040600CF040600C9040600CA
:1026A000C3040600BD040600B7040600B10405001B
:1026B000AC040600A6040600A00405009B04060066
:1026C00095040500900406008A04050085040500B1
:1026D000800406007A0405007504050070040500F6
:1026E0006B04050066040500610405005C04050038
:1026F00057040500520405004D0405004804050078
:10270000430405003E0404003A04050035040500B6
:10271000300404002C0405002704040023040500F1
:102720001E0404001A040400160405001104040029
:102730000D0404000904050004040400000404005E
:10274000FC030400F8030400F4030400F003040095
:10275000EC030400E8030400E4030400E0030400C5
:10276000DC030400D8030400D4030400D0030400F5
:10277000CC030400C8030300C503030024F404D9F8
:10278000201BC40C5C0E9804C4095F02650771012C
:10279000F405F900FB04B30048048700C103690095
:1027A0005803550003034500BE023A00840231007D
:1027B00053022A002902250004022000E4011C0023
:1027C000C8011900AF01170098011400840113001B
:1027D000710110006101100051010E0043010D0054
:1027E00036010B002B010B0020010B001501090025
:1027F0000C01090003010800FB000800F3000800B9
:10280000EB000700E4000600DE000600D80006002A
:10281000D2000600CC000500C7000500C20005007C
:10282000BD000400B9000400B5000400B1000400BC
:10283000AD000400A9000400A5000300A2000300ED
:102840009F0004009B000300980003009500020015
:1028500093000300900003008D0002008B00030032
:10286000880002008600020084000300810002004C
:102870007F0002007D0002007B0002007900020060
:10288000770001007600020074000200720001006F
:10289000710002006F0002006D0001006C00020078
:1028A0006A00010069000200670001006600010083
:1028B0006500010064000200620001006100010087
:1028C000600001005F0002005D0001005C0001008B
:1028D0005B0001005A00010059000100580001008E
:1028E000570001005600010055000100540001008E
:1028F000530000005300010052000100510001008C
:10290000500001004F0001004E0000004E00010089
:102910004D0001004C0001004B0000004B00010085
:102920004A00010049000100480000004800010081
:10293000470001004600000046000100450000007D
:102940004500010044000100430000004300010075
:10295000420000004200010041000000410001006F
:10296000400001003F0000003F0001003E00000069
:102970003E0001003D0000003D0001003C00000061
:102980003C0000003C0001003B0000003B00010057
:102990003A0000003A00010039000000390001004F
:1029A0003800000038000000380001003700000047
:1029B000370001003600000036000000360001003C
:1029C0003500000035000000350001003400000033
:1029D0003400000034000100330000003300000028
:1029E000330001003200000032000000320001001C
:1029F0003100000031000000310001003000000013
:102A000030000000300001002F0000002F00000007
:102A10002F0000002F0001002E0000002E000000FB
:102A20002E0001002D0000002D0000002D000000F0
:102A30002D0001002C0000002C0000002C000000E4
:102A40002C0001002B0000002B0000002B000000D8
:102A50002B0001002A0000002A0000002A000000CC
:102A60002A000100290000002900000029000000C0
:102A700029000000290001002800000028000000B3
:102A800028000000280000002800010027000000A6
:102A90002700000027000000270000002700010099
:102AA000260000002600000026000000260000008E
:102AB0002600010025000000250000002500000080
:102AC0002500000025000000250001002400000072
:102AD0002400000024000000240000002400010065
:102AE000230000002300000023000000230000005A
:102AF000230000002300000023000100220000004A
:102B0000220000002200000022000000220000003D
:102B1000220001002100000021000000210000002F
:102B20002100000021000000210000002100010020
:102B30002000000020000000200000002000000015
:102B40002000000020000000200000002000010004
:102B50001F0000001F0000001F0000001F000000F9
:102B60001F0000001F0000001F0001001E000000E9
:102B70001E0000001E0000001E0000004D38342022
:102B8000582059205A2045006265640A002C2073A1
:102B9000797374656D2073746F707065642120485B
:102BA00065617465725F49443A2000534420636153
:102BB0007264206F6B0A006F70656E526F6F7420C5
:102BC0006661696C65640A00766F6C756D652E6967
:102BD0006E6974206661696C65640A0053442069FB
:102BE0006E6974206661696C0A006175746F25698D
:102BF0002E67004D3234004D32332025730057725A
:102C00006974696E6720746F2066696C653A20008C
:102C10006F70656E206661696C65642C2046696C16
:102C2000653A20006F70656E206661696C65642C82
:102C30002046696C653A200046696C652073656CB6
:102C400065637465640A002053697A653A2000461A
:102C5000696C65206F70656E65643A20006F706501
:102C60006E206661696C65642C2046696C653A204B
:102C7000002066696C653A20004E6F7720002220A4
:102C8000706F73002220706172656E743A22005377
:102C90005542524F5554494E452043414C4C2074A7
:102CA00061726765743A22004B494C4C45442E20B2
:102CB00000747279696E6720746F2063616C6C2098
:102CC0007375622D67636F64652066696C65732038
:102CD0007769746820746F6F206D616E79206C6500
:102CE00076656C732E204D4158206C6576656C209E
:102CF00069733A004572726F723A00466C6F7700E2
:102D0000466C6F770046616E20737065656400469F
:102D1000616E20737065656400426564004265649D
:102D2000004E6F7A7A6C65004E6F7A7A6C6500534C
:102D300070656564005370656564004D61696E007F
:102D40005072656865617420504C41204265640092
:102D50005072656865617420504C41005072657016
:102D6000617265005072656865617420414253204C
:102D70004265640050726568656174204142530089
:102D800050726570617265004D34323800436F6F68
:102D90006C646F776E0050726568656174204142A3
:102DA00053005072656865617420504C41004D3885
:102DB000340044697361626C65207374657070657A
:102DC00072730053657420686F6D65206F6666735B
:102DD000657473004732380A473239004732390088
:102DE0004C6576656C206265640047323800417539
:102DF000746F20686F6D65004D6F7665206178692E
:102E000073004D61696E0020746F6F206C6F6E6788
:102E100020657874727573696F6E2070726576655F
:102E20006E7465640A0020636F6C64206578747248
:102E30007573696F6E2070726576656E7465640A6D
:102E4000007C3C3E5E2B3D3F2F5B5D3B2C2A225C91
:102E5000004573746570732F6D6D004573746570F4
:102E6000732F6D6D005A73746570732F6D6D005AFA
:102E700073746570732F6D6D005973746570732F63
:102E80006D6D005973746570732F6D6D0058737498
:102E90006570732F6D6D005873746570732F6D6D51
:102EA00000412D74726176656C00412D74726176FB
:102EB000656C00412D7265747261637400412D72FE
:102EC00065747261637400416D6178204500416DE5
:102ED0006178204500416D6178205A00416D61782C
:102EE000205A00416D6178205900416D6178205968
:102EF00000416D6178205800416D6178205800567E
:102F000054726176206D696E005654726176206D40
:102F1000696E00566D696E00566D696E00566D6182
:102F200078204500566D6178204500566D61782007
:102F30005A00566D6178205A00566D61782059000C
:102F4000566D6178205900566D6178205800566D95
:102F5000617820580056652D6A65726B0056652DA4
:102F60006A65726B00567A2D6A65726B00567A2D0F
:102F70006A65726B0056792D6A65726B0056792D01
:102F80006A65726B0056782D6A65726B0056782DF3
:102F90006A65726B00416363656C00416363656CD5
:102FA000005A204F6666736574005A204F66667338
:102FB000657400436F6E74726F6C002042403A007B
:102FC00020403A00202F0020423A00202F002054B9
:102FD0003A00205A3A0020593A0020436F756E7427
:102FE00020583A200020453A00205A3A0020593A09
:102FF00000583A00205A00205900580020204D6106
:10300000783A2000205A00205900580020204D69AD
:103010006E3A20004F6E20004F666600536F667454
:1030200020656E6473746F70733A200020643A00F8
:1030300020693A0020703A0043290A0061626C65F9
:103040006420286D696E2074656D702000436F6C7C
:103050006420657874727564657320617265200000
:103060005374616E64617264204465766961746949
:103070006F6E3A20002052616E67653A2000204D45
:1030800061783A2000204D696E3A20004D65616EEE
:103090003A200046696E6973686564210020726198
:1030A0006E67653A2000206D61783A2000206D69D6
:1030B0006E3A2000207369676D613A2000206D65CB
:1030C000616E3A20003A207A3A2000206F66200094
:1030D000205A00205900205800476F696E672074FD
:1030E0006F3A00436C6F636B776973650A00436FD7
:1030F000756E7465722D0020446972656374696F22
:103100006E3A2000202020616E676C653A200053E3
:1031100074617274696E67207261646975733A20B4
:1031200000506F736974696F6E696E6720746865AB
:103130002070726F62652E2E2E0A003F4E756D62F2
:103140006572206F66206C65677320696E206D6FF5
:1031500076656D656E74206E6F7420706C6175732A
:1031600069626C652028302D3135292E0A005900FE
:1031700058003F53616D706C652073697A65206EED
:103180006F7420706C61757369626C652028342DD2
:103190003530292E0A004D3438205A2D50726F6276
:1031A00065205265706561746162696C697479202B
:1031B000546573740A003F566572626F7365204CE4
:1031C0006576656C206E6F7420706C6175736962D2
:1031D0006C652028302D34292E0A00526573656EE7
:1031E000643A20006F6B004B494C4C45442E200044
:1031F000506C656173652072657365740050524947
:103200004E5445522048414C544544005072696E1A
:103210007465722068616C7465642E206B696C6CD7
:1032200028292063616C6C6564210A00656E7175E4
:10323000657565696E672022003E207A70726F6244
:10324000655F7A6F6666736574203D20002A2A2ABE
:10325000205A20484F4D4544205749544820505249
:103260004F424520285A5F4D494E5F50524F4245CC
:103270005F555345535F5A5F4D494E5F454E44532A
:10328000544F505F50494E29202A2A2A0A00000034
:1032900004C20000C0C0CDCC4C3E3E3E3E20736513
:1032A000745F617869735F69735F61745F686F6D84
:1032B0006528005761726E696E673A20486F6D69C4
:1032C0006E672042756D702044697669736F722055
:1032D0003C20310A00203A203E20414654455220ED
:1032E0007365745F617869735F69735F61745F6848
:1032F0006F6D650A00202063757272656E745F7071
:103300006F736974696F6E3D00486F6D6520322080
:10331000536C6F773A0A004D6F766520417761797B
:103320003A0A000000A0400000A040000000400059
:10333000007B430000624300005C43486F6D6520E2
:103340003120466173743A0A00FFFFFF46696C2E14
:10335000204469612E0046696C2E204469612E006C
:103360004F6666004F6E20004520696E206D6D33FC
:1033700000436F6E74726F6C0043616E6E6F7420E9
:10338000656E746572207375626469723A2000021A
:103390002E2E000152656672657368004D61696E7C
:1033A00000496E69742E2053442063617264004E9C
:1033B0006F2053442063617264004D3231004368D2
:1033C000616E6765205344206361726400507269C6
:1033D0006E742066726F6D205344004D323100537D
:1033E000746F70207072696E7400526573756D65CC
:1033F000207072696E740050617573652070726917
:103400006E7400436F6E74726F6C00507265706101
:1034100072650054756E6500496E666F2073637245
:1034200065656E004E414E494E495459494E46CD50
:10343000CCCC3D0AD7233C17B7D13877CC2B32956B
:1034400095E6241FB14F0A000020410000C8420049
:10345000401C4620BCBE4CCA1B0E5AAEC59D740013
:1034600019E9A2EE11241FBECFEFD0E4DEBFCDBF1D
:1034700013E0A0E0B1E0EAEDF8EF01E00BBF02C01D
:1034800007900D92AE34B107D9F723E1AEE4B3E073
:1034900001C01D92A236B207E1F71AE1C1E3DAE1F9
:1034A00004C02197FE010E9446F0C033D107C9F73E
:1034B0000E94D8E30C9460FC0C9400002F923F9281
:1034C0004F925F926F927F928F929F92AF92BF9234
:1034D000CF92DF92EF92FF920F931F93CF93DF93E0
:1034E000CDB7DEB7C457D1090FB6F894DEBF0FBE13
:1034F000CDBF0091C00620E6029F80011124005C30
:103500001A4F10935E0300935D038091191280FFA0
:1035100018C0E6E7F3E284917F013FEFE31AF30A74
:10352000882321F00E94814EF701F5CFD8018D91BB
:103530008D01882319F00E94814EF8CF8AE00E9405
:10354000814E20915D0330915E03F90180812F5FF0
:103550003F4F8032D1F3F0935E03E0935D038E34EE
:1035600069F0D0905D03C0905E036AE270E08D2D3B
:103570009C2D0E9420F30097D1F420C0818190ED12
:10358000980F9A3010F08D3261F73296DF01319644
:103590002C9120532A30D0F3CD01FC0101962081DB
:1035A0002032D9F3F0935E03E0935D03DACFFC01A0
:1035B00031968291803231F08A3221F0AD2DBC2DCE
:1035C0009D9102C01082F5CFFD018081119680325D
:1035D000D9F380538A3010F00C94623500E010E08B
:1035E0002AE0209FB001219F700D11248B01005310
:1035F00011098191080F111D87FD1A958081805353
:103600008A3078F37F013196D7018C918032D1F3E3
:10361000F0925703E09256039D3409F42AC694357C
:1036200011F40C943933973411F00C9462350D3148
:10363000110509F494C480F40430110509F4CBC1D8
:1036400028F402301105E8F00C947E330C3111059A
:1036500009F4FFC10C947E330A35110509F458C5ED
:1036600030F40E31110509F47EC40C947E330B3511
:10367000110509F451C50C35110509F452C50C9416
:103680007E3380918301882311F40C947E3331E3DF
:10369000C32E33E1D32E45EDE42E4FE0F42E58E552
:1036A000A52E53E0B52E03E712E064E0962E900EAF
:1036B000F80181918F010E94DB4C8823E1F00E9488
:1036C0006E4DD5012C91211104C020915C03222361
:1036D00031F0F701208131814281538103C020E024
:1036E00030E0A9010E9450F0D6016D937D938D9337
:1036F0009C9313970AC0F70180819181A281B381C5
:10370000F60180839183A283B383F4E0CF0ED11CB2
:1037100024E0E20EF11C3FEFA31AB30A9012C8CFC7
:1037200086E40E94DB4C882359F00E946E4D20E015
:1037300030E0A9010E9417F2181614F40C9481339A
:10374000C0908801D0908901E0908A01F0908B01AF
:10375000A701960160913113709132138091331358
:10376000909134130E9417F2181644F4C09231134A
:10377000D0923213E0923313F0923413C0908C0144
:10378000D0908D01E0908E01F0908F01A7019601FD
:1037900060913513709136138091371390913813DF
:1037A0000E9417F2181644F4C0923513D0923613C3
:1037B000E0923713F0923813C0909001D0909101AD
:1037C000E0909201F0909301A70196016091391366
:1037D00070913A1380913B1390913C130E9417F221
:1037E000181644F4C0923913D0923A13E0923B1366
:1037F000F0923C130E94764E8091191283FD93C083
:10380000C0903D13D0903E13E0903F13F0904013D2
:103810002091E10F3091E20F4091E30F5091E40FBE
:10382000C701B6010E9409F8882309F47CC0809181
:103830001412811134C0209195013091960140916C
:103840009701509198016091790770917A07809162
:103850007B0790917C070E9409F887FF20C0C092E7
:10386000E10FD092E20FE092E30FF092E40FE6E76F
:10387000F3E284918F010F5F1F4F882321F00E9494
:10388000814EF801F6CFEAE3F1E084918F010F5FFA
:103890001F4F882321F00E94814EF801F6CFC0907F
:1038A0003D13D0903E13E0903F13F09040132091D1
:1038B000E10F3091E20F4091E30F5091E40FC70107
:1038C000B6010E944FF00E944AF197FF07C0909501
:1038D0008095709561957F4F8F4F9F4F693C710523
:1038E0008105910504F1C092E10FD092E20FE092C0
:1038F000E30FF092E40FE6E7F3E284918F010F5FAC
:103900001F4F882321F00E94814EF801F6CFEBE192
:10391000F1E084918F010F5F1F4F882321F00E94F7
:10392000814EF801F6CF209131133091321340913E
:103930003313509134136091D50F7091D60F80914D
:10394000D70F9091D80F0E9409F881111DC02091C6
:1039500035133091361340913713509138136091DD
:10396000D90F7091DA0F8091DB0F9091DC0F0E94DC
:1039700009F8811109C060910001709101018091E5
:103980000201909103011AC0609186017091870134
:10399000072E000C880B990B0E9410F82091000153
:1039A0003091010140910201509103010E946FF892
:1039B0002AE037ED43E25CE30E946FF80E94804CFE
:1039C00080E1E1E3F3E1A5EDBFE001900D928A957E
:1039D000E1F70C947E3380E50E94DB4C882329F0CC
:1039E0000E94634D6B017C0103C0C12CD12C760178
:1039F00083E50E94DB4C882321F00E94974D6B01E8
:103A00007C010E9454960E94764E809129139091D9
:103A10002A13A0912B13B0912C13C80ED91EEA1EA5
:103A2000FB1E80913B01811105C060E085E591E0BE
:103A30000E94B4810E940B62DC01CB018C199D09AC
:103A4000AE09BF09B7FD02C00C947E330E948BDA29
:103A5000F1CF8091191285FF0EC0E6E8F2E0849163
:103A60008F010F5F1F4F882321F00E94814EF801C4
:103A7000F6CF0E94E2540E94549680E00E943F4B91
:103A80000E9451588091191285FF0CC0EDE6F2E0BA
:103A900084918F010F5F1F4F882321F00E94814E78
:103AA000F801F6CF11E010932C0188E50E94DB4C61
:103AB000A82E89E50E94DB4C082F8AE50E94DB4C8A
:103AC000982EA11005C0011105C0982F912705C09F
:103AD000011102C090E001C0982F9093040180E191
:103AE000E5EDFFE0A1E3B3E101900D928A95E1F7E6
:103AF000911105C0A11003C0002309F44AC020E0C1
:103B000030E040E050E46091FD0F7091FE0F809135
:103B1000FF0F909100100E9450F02091F10F309112
:103B2000F20F4091F30F5091F40F0E9450F06B018F
:103B30007C016093391370933A1380933B139093F5
:103B40003C132091DD0F3091DE0F4091DF0F50913B
:103B5000E00F0E9417F21816E4F48091191285FF05
:103B600009C0B701A60181E592E00E94C5548AE030
:103B70000E94814E19821A821B821C829E012F5F35
:103B80003F4F49E353E169ED7FE085ED9FE00E94FF
:103B9000544B80910401811106C0AA2009F4A4C0ED
:103BA000002309F4A1C01092D90F1092DA0F1092DD
:103BB000DB0F1092DC0F1092D50F1092D60F1092DF
:103BC000D70F1092D80F0E94234EE9E4F3E314912B
:103BD0008FE293E30E946A4E2B013C0183E393E35F
:103BE0000E946A4E6B017C019B01AC01C301B201D2
:103BF0000E9417F218162CF4A3019201C701B60116
:103C000004C0A7019601C301B2010E94D8F09B0134
:103C1000AC010E946FF820E030E040E85FE30E94D2
:103C200050F00E945DF220E030E048EC52E40E9447
:103C30006FF86BAF7CAF8DAF9EAFEAE4F3E3B49067
:103C400020E030E040EC5FE3C701B6010E946FF86E
:103C50006B017C016B2DBB0C770B880B990B0E94C1
:103C600010F89B01AC01C701B6010E946FF869838F
:103C70007A838B839C8320E030E040EC5FE3C301D8
:103C8000B2010E946FF86B017C01612F110F770B5D
:103C9000880B990B0E9410F89B01AC01C701B6017B
:103CA0000E946FF868A379A38AA39BA39E01255C59
:103CB0003F4F4DED5FE0BE016F5F7F4FCE018096BD
:103CC0000E94544B10929D121092D90F1092DA0F4D
:103CD0001092DB0F1092DC0F1092D50F1092D60FBE
:103CE0001092D70F1092D80F80910401811102C059
:103CF000AA2081F080E090E00E9418D880911912EB
:103D000085FF08C045ED5FE061E372E08DE392E07E
:103D10000E94A65780910401811102C0002381F006
:103D200081E090E00E9418D88091191285FF08C0A8
:103D300045ED5FE061E172E08DE192E00E94A657FF
:103D400080910401811103C0992009F4FCC0809185
:103D50001C05882321F080911D0581111EC060E0A3
:103D600086EC91E00E94B481E6E7F3E284918F0152
:103D70000F5F1F4F882321F00E94814EF801F6CF7C
:103D8000E5EBF1E084918F010F5F1F4F882309F469
:103D9000CEC00E94814EF801F5CF8091191285FFA7
:103DA0000CC0E2EAF1E084918F010F5F1F4F88237E
:103DB00021F00E94814EF801F6CF0E94234E20E0B0
:103DC00030E048ED52E46091F50F7091F60F80916C
:103DD000F70F9091F80F0E9450F02091E90F309169
:103DE000EA0F4091EB0F5091EC0F0E9450F04B0105
:103DF0005C0160933113709332138093331390936B
:103E0000341320E030E048ED52E46091F90F7091F6
:103E1000FA0F8091FB0F9091FC0F0E9450F02091BF
:103E2000ED0F3091EE0F4091EF0F5091F00F0E9487
:103E300050F06B017C0160933513709336138093BF
:103E40003713909338138091DD0F9091DE0FA0917E
:103E5000DF0FB091E00F8093391390933A13A09342
:103E60003B13B0933C1381E393E10E9431D5882347
:103E700009F440C020E030E040EB51E4C501B4015A
:103E80000E944FF060933113709332138093331379
:103E90009093341320E030E040E452E4C701B601CF
:103EA0000E944FF06093351370933613809337134D
:103EB000909338138091191285FF08C041E353E1B4
:103EC00061E871E083E991E00E94A65719821A82A5
:103ED0001B821C829E012F5F3F4F4DED5FE065E32B
:103EE00073E181E393E10E94544B82E090E00E94F1
:103EF00018D81DC060E080E791E00E94B481E6E739
:103F0000F3E284918F010F5F1F4F882321F00E94FD
:103F1000814EF801F6CFEEE5F1E084918F010F5F5D
:103F20001F4F882321F00E94814EF801F6CF809127
:103F3000191285FF08C045ED5FE066ED71E08DEF79
:103F400091E00E94A6570E94234E8091F106809333
:103F50002C010E942B580E94A9CD0C947E330E9404
:103F600095350C947E3388E50E94DB4C882319F04C
:103F70000E946E4D0EC020E030E040EB51E46091B5
:103F8000D50F7091D60F8091D70F9091D80F0E94C6
:103F900050F06BAF7CAF8DAF9EAF89E50E94DB4CDC
:103FA000882319F00E946E4D0EC020E030E040E4FE
:103FB00052E46091D90F7091DA0F8091DB0F9091EC
:103FC000DC0F0E9450F068A379A38AA39BA30BADDA
:103FD0001CAD2DAD3EAD09831A832B833C836D83CD
:103FE0007E838F83988720E030E0A9016091FD0FE8
:103FF0007091FE0F8091FF0F909100100E9450F081
:104000002091F10F3091F20F4091F30F5091F40F86
:104010000E9450F069877A878B879C87CE01019632
:104020000E9431D5882311F40C947E3383E50E94DD
:10403000DB4C882321F00E941D4D482F01C041E038
:1040400080E0E5964FAFE5970E943F4B0E945158A4
:1040500021E030E0E5964FADE597BE01605E7F4F11
:10406000CE01CB960E948B536B017C01EFE9F2E00D
:1040700084918F010F5F1F4F882321F00E94814E92
:10408000F801F6CF27E137EB41ED58E36BAD7CAD9E
:104090008DAD9EAD0E9450F042E00E941653EAE9B9
:1040A000F2E084918F010F5F1F4F882321F00E945F
:1040B000814EF801F6CF27E137EB41ED58E368A1D7
:1040C00079A18AA19BA10E9450F042E00E94165360
:1040D000E5E9F2E084918F010F5F1F4F882321F003
:1040E0000E94814EF801F6CF27E137EB41ED58E30E
:1040F000C701B6010E9450F042E00E9416538AE0C8
:104100000E94814E0E942B580E94A9CD0C947E33B0
:1041100010925C030C947E3381E080935C030C94DA
:104120007E3385E40E94DB4CB82E811102C00E94D0
:10413000549683E7882E82E0982E95EDC92E9FE055
:10414000D92E29EEE22E2FE0F22E00E010E0A12C75
:10415000D4018D914D010E94DB4C8823F1F1F601D1
:104160002081318142815381E2962FAFE297E3961D
:104170003FAFE397E5964FAFE597E4965FAFE497DF
:104180000E946E4DD6016D937D938D939C931397F2
:10419000E2962FADE297E3963FADE397E5964FADFC
:1041A000E597E4965FADE49703301105B1F00E9406
:1041B0004FF09B01AC01F701608171818281938195
:1041C0000E9450F0D7016D937D938D939C9313972C
:1041D000C8010E940757AA24A3940F5F1F4FB4E0A1
:1041E000CB0ED11CE4E0EE0EF11C0430110509F0F9
:1041F000AFCFAA2019F00E94234E37C0BB20A9F1EF
:10420000C090E10FD090E20FE090E30FF090E40F48
:1042100020912B1230912C1240912D1250912E1280
:10422000C701B6010E946FF80E941CF26093040857
:10423000709305088093060890930708C701B6019C
:104240000E944AF12FB7F8946093AC0F7093AD0FB2
:104250008093AE0F9093AF0F2FBF1092F407109280
:10426000F5071092F6071092F7070E94A9CD0C945B
:104270007E330237110511F40C943B2C08F0C6C0B4
:104280000033110509F42BC508F060C00831110591
:1042900009F475C2B8F50231110511F40C94712BB3
:1042A000A0F40230110508F4AAC10131110511F082
:1042B0000C947E3360E088ED92E00E94B4815E98B9
:1042C0005E9815985E980C947E330531110509F4BB
:1042D0004CC240F40431110511F00C947E33E0EF30
:1042E000F2E000C20631110509F443C2073111059D
:1042F00011F00C947E3340E061E0C7010E94949F6E
:104300000C947E330C31110509F48EC250F40A313D
:10431000110509F43FC208F04BC2109238080C9402
:104320007E330F31110509F4EEC330F40E3111055F
:1043300009F481C20C947E330032110509F493C351
:104340000A32110509F485C40C947E330C3511052D
:1043500011F40C94B32B58F50135110511F40C949C
:104360004F2B88F40C34110509F4BDC40D3411052C
:1043700009F4D3C40B34110511F00C947E330E9460
:1043800020D60C947E330335110511F40C946C2B5C
:1043900010F40C94682B0435110511F40C94712B56
:1043A0000535110511F40C94A02B0C947E330C36BA
:1043B000110509F4ACC5B8F40936110509F4C8C5EE
:1043C00030F40836110509F4ACC40C947E330A3677
:1043D000110511F40C94172B0B36110511F40C94E4
:1043E0003D2B0C947E330E36110509F4E0C408F41D
:1043F000F4C50F36110509F4EDC40037110511F0AD
:104400000C947E3389EE93E00E941FDA023E110580
:1044100011F40C949A2E08F075C00E3B110509F4A6
:1044200081C7A0F50837110511F40C94B22C98F44B
:104430000537110511F40C94492C0737110511F4B7
:104440000C944E2C0337110511F00C947E33E3E5E8
:10445000F4E00C943E2C0C38110509F460C558F4B6
:104460000937110511F00C947E3310922C01109233
:10447000F1060C947E330139110511F40C94B82C1B
:104480000B39110509F47EC50C947E330D3C1105E2
:1044900011F40C941F2EC8F4093C110511F40C946E
:1044A000752D38F4083C110511F40C942C2D0C9446
:1044B0007E330B3C110511F40C94972D0C3C110527
:1044C00011F40C94B52D0C947E33033D110511F4B9
:1044D0000C948A2E48F40E3C110511F00C947E3396
:1044E0000E9468CE0C947E330C3D110511F40C949F
:1044F0008D2E0D3D110511F00C947E330E94F8CCE9
:104500000C947E330A39F1E01F0709F404C5C8F59D
:104510000F3231E0130711F40C94A32E90F40D32F6
:1045200051E0150711F40C949D2E10F00C94A02E60
:104530000C32114011F00C947E330E946DCC0C941F
:104540007E330039A1E01A0711F40C945B3148F472
:104550000336114011F00C947E33E4EFFCE20C942E
:1045600012330139F1E01F0711F40C945E31023966
:10457000114011F00C947E3380E00E94394C0C9471
:104580007E33063F31E0130711F40C94CA32E8F48D
:104590000C3A51E0150711F40C94B23138F4043A96
:1045A000114011F40C9462310C947E33043FA1E06D
:1045B0001A0711F40C94C732053F114011F00C9406
:1045C0007E330E94AF720C947E330335E3E01E0706
:1045D00011F40C94D93238F4073F114011F40C94C3
:1045E000CD320C947E33003A33E0130709F481C2D4
:1045F000073E134011F40C9429330C947E3380E56C
:104600000E94DB4C882359F00E94634D4B015C01F2
:1046100011E0672B682B692B31F410E004C010E027
:10462000812C912C540183E50E94DB4C882399F066
:104630000E94974D4B015C0111110FC0672B682B35
:10464000692B59F4D7018C91882339F061E0C701B7
:104650000E94C98107C01123A9F360E087EC92E0B2
:104660000E94B48181E080935B070E9454960E946F
:10467000764E81149104A104B104E9F080912913CC
:1046800090912A13A0912B13B0912C13880E991E90
:10469000AA1EBB1E0E940B62DC01CB01881999097E
:1046A000AA09BB09B7FF1AC080915B078823B1F044
:1046B0000E948BDAEFCF80915B07882319F00E946C
:1046C0008BDAF9CF8091380860E0882319F088EB05
:1046D00092E002C087EA92E00E94B48110925B07E8
:1046E0000C947E3384918F010F5F1F4F882321F03C
:1046F0000E94814EF801F6CF1092BE0A1092BD0AB8
:1047000040E050E0BA0189E698E00E943E8A8BE1E1
:10471000E9E6F8E0DE01159601900D928A95E1F741
:1047200080916708909168089C838B8381E692E072
:104730009A83898340E050E0BE016F5F7F4F8DE137
:1047400093E00E949392CE0101960E940DDAE1EE71
:10475000F2E084918F010F5F1F4F882311F40C94B6
:104760007E330E94814EF801F4CF0E94CBA20C94BC
:104770007E3310923808109239080C947E33809161
:104780003908882319F081E0809338080E9420D6E8
:104790000C947E3380913908882311F40C947E3375
:1047A00083E50E94DB4C81110C9493330C947E338F
:1047B00080913908882351F1E1E0F3E084918F0181
:1047C0000F5F1F4F882321F00E94814EF801F6CF22
:1047D0006091B40A7091B50A8091B60A9091B70AB7
:1047E0004AE00E94044F8FE20E94814E6091B00A1D
:1047F0007091B10A8091B20A9091B30A4AE00E9486
:10480000044F8AE00E94814E0C947E33E3E1F3E092
:1048100084918F010F5F1F4F882311F40C947E3316
:104820000E94814EF801F4CF40E060E0C7010E9491
:10483000949F0C947E3380913908882311F40C9452
:104840007E3383E09AE00E94FB8983E09AE00E9435
:1048500055BA1092370810923608E0905603F0903F
:10486000570380913908882311F40C947E330E94F9
:10487000899F1D8218861C821B8281E692E09A83A2
:10488000898385E698E09093850880938408F701F2
:1048900080818F3209F068C06FE270E0C7010E942A
:1048A00020F38C010F5F1F4F9E012F5F3F4F490187
:1048B0000115110509F45EC06FE270E0C8010E94A5
:1048C00020F36C01009709F456C00817190708F087
:1048D00052C05C01A01AB10AA501B801CE018096B0
:1048E0000E9449F3E0E2F0E0EC0FFD1FEA0DFB1D32
:1048F00010828E01005E1F4FD8018D918D0188239B
:1049000019F00E94814EF8CF8AE00E94814E60919A
:104910008408709185086115710511F06C5F7F4FF7
:1049200021E0AE01405E5F4FCE0105960E9477BE4A
:10493000811112C0BE01605E7F4F8AE493E00E9445
:10494000DD4E8EE20E94814E8AE00E94814EC401BB
:104950000E940DDA0C947E33909285088092840830
:1049600086010F5F1F4FA4CF86E898E090938508DB
:10497000809384088701609184087091850861158F
:10498000710511F06C5F7F4F18A21BA222E0A801F5
:10499000CE0180960E9477BE811102C0F12C1EC00C
:1049A000CE0180960E9401928823C1F36CA57DA55B
:1049B0008EA59FA541E00E944788882379F3E8A946
:1049C000B0E2EB9FF0011124EE5FFF4E309731F320
:1049D00085EE80831BA20E940788F82ECE01809668
:1049E0000E94704EFF2009F1E4E2F3E084917F0120
:1049F0002FEFE21AF20A882321F00E94814EF7017C
:104A0000F5CFD8018D918D01882319F00E94814E38
:104A1000F8CF8AE00E94814E1092B40A1092B50A33
:104A20001092B60A1092B70A18C0E2E3F3E084913C
:104A30007F01BFEFEB1AFB0A882321F00E94814E11
:104A4000F701F5CFF80181918F01882319F00E94B9
:104A5000814EF8CF8EE20E94814ECE0101960E94D7
:104A60000DDA0C947E338091380881110E9454969F
:104A7000009156031091570361E270E0C8010E9453
:104A800020F3009719F08C010F5F1F4F80E50E9403
:104A9000DB4C882349F0FF24F39480914E039091DE
:104AA0004F038017910708F0F12C80913908882373
:104AB00011F40C947E334F2D61E0C8010E94949F45
:104AC00083E50E94DB4C882349F080914E0390914E
:104AD0004F038017910710F40C94A4338091390888
:104AE000882319F081E080933808F1100C947E330C
:104AF0004DCE81E08093370840E060E0C7010E941E
:104B0000949F0C947E330E94CB910CE3C02ED12C49
:104B1000E12CF12CA70196010E94FDFB762E672E59
:104B2000CA01B901A70196010E94FDFB6B017C013E
:104B3000CA01B90128E130E040E050E00E94FDFBED
:104B40004B015C01C9016DE671E00E941EF08E010F
:104B50000F5F1F4F6115710599F06F927F92DF9281
:104B6000CF929F928F929F938F937F936F9386E8BC
:104B700093E09F938F931F930F930E94D9F712C0D6
:104B80000097B1F06F927F92DF92CF929F928F92B7
:104B90009F938F9386E793E09F938F931F930F9339
:104BA0000E94D9F70FB6F894DEBF0FBECDBF36C056
:104BB00081149104A104B10479F06F927F92DF9285
:104BC000CF929F928F928AE693E09F938F931F9349
:104BD0000F930E94D9F7E6CFC114D104E104F10488
:104BE00069F06F927F92DF92CF9282E693E09F937B
:104BF0008F931F930F930E94D9F7D4CF6F927F9218
:104C00008EE593E09F938F931F930F930E94D9F7A4
:104C10000F900F900F900F900F900F9060E0C801D1
:104C20000E94C981E6E7F3E284917F01BFEFEB1AAE
:104C3000FB0A882321F00E94814EF701F5CFB801CD
:104C40008AE993E00E94DD4E8AE00E94814E0C9436
:104C50007E3383E50E94DB4C882311F40C947E3371
:104C60000E94564D7C018F3F910519F010F00C9475
:104C70007E3380E50E94DB4C882311F40C947E3354
:104C80000E94564D8C0197FF02C00C947E33E3EBDB
:104C9000F1E09927219131912817390731F022E06D
:104CA000E330F207B9F70C946B33E4EFFCE2849144
:104CB0008F010F5F1F4F882321F00E94814EF80162
:104CC000F6CFE7EAF3E084918F010F5F1F4F88234F
:104CD00011F40C947E330E94814EF801F4CF0E94AF
:104CE00049CF0C947E338091280890912908019730
:104CF00011F00C947E3382E090E090932908809329
:104D000028080E940B6260933208709333088093E6
:104D10003408909335080C947E330E941A900C94BA
:104D20007E3388E690E00E94D55281110C947E3348
:104D30008091191283FF02C00C947E3383E50E9498
:104D4000DB4C882311F40C947E330E946E4D0E943C
:104D50004AF170937807609377070E942B8F0E9427
:104D60006E4D20E030E04AEA52E40E9409F818163D
:104D70003CF00E941A9060E081EC93E00E94B481C4
:104D80000E946E4D2091790730917A0740917B0700
:104D900050917C070E9417F2181614F00C947E3381
:104DA00060E086EB93E00E94B4810C947E338EE445
:104DB0000E94DB4C882311F40C947E330E945DE347
:104DC0006093500370935103809352039093530365
:104DD0000C947E3383E50E94DB4C882319F00E94FB
:104DE000EE4C01C080E080931912E6E7F3E2849173
:104DF0008F010F5F1F4F882321F00E94814EF80121
:104E0000F6CFE2EEF3E084918F010F5F1F4F88230E
:104E100021F00E94814EF801F6CF8091191288236B
:104E2000A1F112EDC12E13E0D12EE12CF12C20E0E6
:104E30008091191290E00E2C02C0959587950A94E6
:104E4000E2F780FF17C0BB24B394B20E222319F0FF
:104E50008CE20E94814EF60125913491F9018491F2
:104E600089010F5F1F4F882321F00E94814E980116
:104E7000F5CF2B2DFFEFEF1AFF0A32E0C30ED11C46
:104E800046E0E416F104A1F63DC0EEEDF3E08491B6
:104E90008F010F5F1F4F8823A9F10E94814EF801F7
:104EA000F6CF80E20E94814E8AE50E94DB4C882387
:104EB00011F40C9404330E946E4D6B017C0120E0D0
:104EC00030E040EA51EC0E9417F287FF02C00C94D8
:104ED000F33220E030E040EA51E4C701B6010E941D
:104EE00009F8181614F40C94F332C092E50FD0921E
:104EF000E60FE092E70FF092E80F42E0C701B6013B
:104F00000E9416538AE00E94814E0C947E331092C8
:104F1000A8010C947E330E9428CB0C947E338091A0
:104F2000191283FF02C00C947E3383E50E94DB4C90
:104F3000882311F40C947E330E946E4D0E944AF136
:104F40007093D2066093D1060E9498940C947E339D
:104F500089E690E00E94D55281110C947B35E2EFF6
:104F6000F3E084918F010F5F1F4F882321F00E948F
:104F7000814EF801F6CF0E94C1CE8AE00E94814E98
:104F80000C947B3583E50E94DB4C882311F40C9450
:104F90007E330E94EE4C809328138D3318F08CE3FF
:104FA000809328130E940B626B017C0120912813CF
:104FB00030E0A8EEB3E00E9451FCDC01CB018C0D87
:104FC0009D1DAE1DBF1D8093241390932513A093A8
:104FD0002613B09327130C947E338DE690E00E9445
:104FE000D55281110C947E338091191283FF02C037
:104FF0000C947E3383E50E94DB4C28968FAF289774
:10500000811105C082E50E94DB4C8823C1F10E941A
:105010006E4D0E944AF170937807609377070E9463
:105020002B8F0E946E4D20E030E04AEA52E40E944D
:1050300009F8181614F40C94B6330E941A9060E024
:1050400085E194E00E94B4816091770770917807C0
:10505000072E000C880B990B0E9410F820917907FD
:1050600030917A0740917B0750917C070E9417F29C
:1050700018162CF460E08AE094E00E94B48181E08C
:105080008093A80127961CAE1DAE1EAE1FAE2797BB
:105090002D961CAE1DAE1EAE1FAE2D971FAE2E96CA
:1050A0001FAE2E975CE32F965FAF2F978CE1609633
:1050B0008FAF609796E462969FAF6297C12CD12C18
:1050C000A0E8EA2EBFEBFB2E812C912C54016091BD
:1050D000770770917807072E000C880B990B0E94B8
:1050E00010F8162F072F782E692E262F372F482FCE
:1050F000592FB601C7010E9409F8882331F1209188
:10510000790730917A0740917B0750917C07612F96
:10511000702F872D962D0E9409F8881F8827881FD9
:105120008FAF2896AFAD2897AA2399F0882389F0EE
:105130008091A801882311F40C947E3360E085EF00
:1051400093E00E94B4810C947E331C2D0D2D7E2C97
:105150006F2C0E940B626B017C01DC01CB012D9650
:105160002CAD3DAD4EAD5FAD2D97821B930BA40BC7
:10517000B50BB7FD47C0D701C60188519C4FAF4F53
:10518000BF4F2D968CAF9DAFAEAFBFAF2D970E9496
:10519000C1CEE6E0F4E084912F019FEF491A590A4D
:1051A000882321F00E94814EF201F5CF81149104F1
:1051B000A104B104D1F0D501C4018059984EAF4F7C
:1051C000BF4FBC01CD016C197D098E099F0928EEE6
:1051D00033E040E050E00E94FDFBCA01B9010E94AB
:1051E000894F8AE00E94814E0DC0E3E0F4E0849193
:1051F0002F01AFEF4A1A5A0A882321F00E94814EEC
:10520000F201F5CF0E948BDA0E94764E209079074A
:1052100030907A0740907B0750907C079101A20163
:10522000612F702F872D962D0E944FF09F7781144C
:105230009104A104B10449F420E030E040E85FE3C8
:105240000E9409F887FF0BC008C020E030E040E46E
:1052500050E40E9417F2181614F446015701BFAD2E
:10526000BB2309F443C027962CAD3DAD4EAD5FADD9
:105270002797211531054105510541F0D701C60198
:10528000821B930BA40BB50BB7FD30C09101A2019B
:105290002E966FAD2E972F967FAD2F9760968FAD80
:1052A000609762969FAD62970E944FF020E030E0D9
:1052B00040EC5FE30E9409F887FD3ACFD701C601B1
:1052C000805A9541AF4FBF4F27968CAF9DAFAEAF81
:1052D000BFAF27972E962FAE2E972F963FAE2F97C4
:1052E00060964FAE609762965FAE62978091A8011C
:1052F000882309F41DCF81149104A104B10429F479
:10530000C12ED02EE72CF62CE2CE90E7C91A97E1F9
:10531000D90AE108F108C818D908EA08FB08F7FE1D
:1053200007CFEECF8091191283FF02C00C947E3319
:1053300060E087E394E00E94B48183E50E94DB4C47
:1053400028968FAF2897811105C082E50E94DB4C1B
:105350008823B1F00E946E4D0E944AF17093D206EC
:105360006093D1060E9498940E946E4D20E030E038
:1053700040EA50E40E9417F2181614F40E9420D656
:1053800081E08093A8018091550380935403279670
:105390001CAE1DAE1EAE1FAE27972D961CAE1DAEC9
:1053A0001EAE1FAE2D971FAE2E961FAE2E97ACE3EE
:1053B0002F96AFAF2F97BCE16096BFAF6097E6E442
:1053C0006296EFAF6297C12CD12CE0E8EE2EFFEB96
:1053D000FF2E812C912C54016091D1067091D20640
:1053E000072E000C880B990B0E9410F8162F072F20
:1053F000782E692E262F372F482F592FB601C70137
:105400000E9409F8882331F12091F2063091F306C9
:105410004091F4065091F506612F702F872D962D3F
:105420000E9409F8881F8827881F8FAF2896FFAD34
:105430002897FF2399F0882389F08091A801882379
:1054400011F40C947E3360E086E294E00E94B48113
:105450000C947E331C2D0D2D7E2C6F2C0E940B6224
:105460006B017C01DC01CB012D962CAD3DAD4EAD29
:105470005FAD2D97821B930BA40BB50BB7FD47C0F7
:10548000D701C60188519C4FAF4FBF4F2D968CAFAF
:105490009DAFAEAFBFAF2D970E94C1CEE3E3F4E066
:1054A00084912F019FEF491A590A882321F00E9405
:1054B000814EF201F5CF81149104A104B104D1F021
:1054C000D501C4018059984EAF4FBF4FBC01CD01EB
:1054D0006C197D098E099F0928EE33E040E050E009
:1054E0000E94FDFBCA01B9010E94894F8AE00E9417
:1054F000814E0DC0E0E3F4E084912F01AFEF4A1A32
:105500005A0A882321F00E94814EF201F5CF0E94B1
:105510008BDA0E94764E2090F2063090F30640908F
:10552000F4065090F5069101A201612F702F872D8E
:10553000962D0E944FF09F7781149104A104B1042D
:1055400049F420E030E040E85FE30E9409F887FF7B
:105550000BC008C020E030E040E450E40E9417F2A5
:10556000181614F446015701BFADBB2309F443C01C
:1055700027962CAD3DAD4EAD5FAD2797211531057A
:105580004105510541F0D701C601821B930BA40BC5
:10559000B50BB7FD30C09101A2012E966FAD2E97CD
:1055A0002F967FAD2F9760968FAD609762969FADD7
:1055B00062970E944FF020E030E040EC5FE30E94F1
:1055C00009F887FD3ACFD701C601805A9541AF4F00
:1055D000BF4F27968CAF9DAFAEAFBFAF27972E962C
:1055E0002FAE2E972F963FAE2F9760964FAE6097B7
:1055F00062965FAE62978091A801882309F41DCF5F
:1056000081149104A104B10429F4C12ED02EE72CF9
:10561000F62CE2CE90E7C91A97E1D90AE108F10821
:10562000C818D908EA08FB08F7FE07CFEECF83E5D4
:105630000E94DB4C882321F00E94494D8C0102C05E
:105640000FEF10E080E50E94DB4C882319F00E94E8
:10565000494D02C080E090E098010F3F110519F01C
:1056600010F02FEF30E0892B11F00C947E33309343
:10567000D0062093CF060C947E3380E50E94DB4C4D
:10568000811106C01092D0061092CF060C947E3382
:105690000E94494D892B11F00C947E33F3CF0E9468
:1056A000E8940E9454960E9415DA1092D006109247
:1056B000CF0668EE73E080E090E00E94D16160E088
:1056C00084E494E00E94B4810E94DA810C947E33D9
:1056D00010925B030C947E3381E080935B030C9407
:1056E0007E3383E50E94DB4C882361F00E94974D56
:1056F0006093A0017093A1018093A2019093A301F4
:105700000C947E3388E50E94DB4C81110C94BA33F3
:1057100089E50E94DB4C81110C94BA338AE50E9422
:10572000DB4C81110C94BA3385E40E94DB4C81116F
:105730000C94BA330E9454960E9415DA0C947E336E
:1057400083E50E94DB4C882311F40C947E330E9485
:10575000974D60932D1370932E1380932F13909376
:1057600030130C947E3363E7C62E62E0D62E7FE1C1
:10577000E72E72E1F72E10E0D6018D916D010E94A7
:10578000DB4C882309F46DC0133009F063C00E941C
:105790006E4D4B015C0120E030E040EA51E40E9494
:1057A00009F887FF4EC0A501940160912B127091FA
:1057B0002C1280912D1290912E120E94D8F02B0164
:1057C0003C019B01AC0160916B1270916C12809155
:1057D0006D1290916E120E946FF860936B1270932D
:1057E0006C1280936D1290936E12A30192016091DE
:1057F0005B1270915C1280915D1290915E120E941A
:105800006FF860935B1270935C1280935D129093BB
:105810005E12609158137091591380915A139091B0
:105820005B130E940EF8A30192010E946FF80E9480
:1058300051F1609358137093591380935A139093B6
:105840005B1380922B1290922C12A0922D12B09288
:105850002E1207C00E946E4DF70160837183828310
:1058600093831F5FF4E0EF0EF11C143009F084CF36
:105870000E94EAE243C70E94A9CD40C784918F01EC
:105880000F5F1F4F882309F439C70E94814EF8012A
:10589000F5CF60E0C7010E94C98130C7E3E2F5E0BF
:1058A00084918F010F5F1F4F882321F00E94814E4A
:1058B000F801F6CFEBE1F5E084918F010F5F1F4F08
:1058C000882321F00E94814EF801F6CF329B03C05D
:1058D00007E812E002C00CE812E0D8018D918D01BA
:1058E000882319F00E94814EF8CF8AE00E94814EF1
:1058F000E3E1F5E084918F010F5F1F4F882321F0D2
:105900000E94814EF801F6CF339B03C007E812E0F6
:1059100002C00CE812E0F80181918F01882319F090
:105920000E94814EF8CF8AE00E94814EEBE0F5E0C4
:1059300084918F010F5F1F4F882321F00E94814EB9
:10594000F801F6CF349B03C007E812E002C00CE870
:1059500012E0D8018D918D01882309F4D3CA0E94E9
:10596000814EF7CF81E080932C018093F106C6C66B
:1059700083E50E94DB4C8823F1F00E94564D182FDE
:105980008230D0F0E4EFFCE284918F010F5F1F4F73
:10599000882321F00E94814EF801F6CFEDE3F5E077
:1059A00084918F010F5F1F4F882309F4A7C60E94BF
:1059B000814EF801F5CF10E088E40E94DB4C88238B
:1059C000B1F00E94564DE12FF0E08A3A91053CF08B
:1059D0008530B1E09B072CF084E091E002C08AEAB8
:1059E00090E0EE0FFF1FE952F94F9183808386E428
:1059F0000E94DB4C8823A1F00E94564DE12FF0E07D
:105A0000EE0FFF1FE552F94F8F3F910519F014F08B
:105A10008FEF90E097FF02C080E090E09183808359
:105A200082E40E94DB4C882309F468C60E94564D2C
:105A3000E12FF0E08530910534F0843791052CF0AA
:105A400083E790E002C085E090E0EE0FFF1FED528B
:105A5000F94F9183808352C688EC90E00E94D55222
:105A600081114CC684E40E94DB4C882309F446C6AD
:105A70000E946E4D11E020E030E0A9010E9409F87B
:105A8000811101C010E010934113112359F10091CD
:105A9000540310E00E946E4D000F111F000F111FE4
:105AA000F801EC55FE4F608371838283938320E07D
:105AB00030E0A9016091A4017091A5018091A60137
:105AC0009091A7010E9409F881110CC080E090E03C
:105AD000A0EEBFE38093A4019093A501A093A6013B
